:100000000C942A000C9447000C9447000C94470071
:100010000C9447000C9447000C9447000C94470044
:100020000C9447000C9469020C9447000C94470010
:100030000C9447000C94B1030C9465030C94470096
:100040000C9430070C9447000C9447000C949009D2
:100050000C94470011241FBECFE5D8E0DEBFCDBF12
:1000600011E0A0E6B0E0E4E6F2E202C005900D92F5
:10007000AE38B107D9F713E0AEE8B1E001C01D9288
:10008000AA36B107E1F70E9450000C9430110C948D
:10009000000025E33AEF4EE05DE30E94730B089504
:1000A0002F923F924F925F926F927F928F929F9288
:1000B000AF92BF92CF92DF92EF92FF920F931F9376
:1000C000CF93DF938FEF81BB1ABA1BBA87BB88BB74
:1000D00078940E944B030E9410070E944C020E94D9
:1000E000390987E991E06BE971E04FE951E023EAD2
:1000F00031E007EA11E00F2EFBEAEF2EF1E0FF2ED0
:10010000F02D0F2EFFEACF2EF1E0DF2EF02D0F2E77
:10011000F3EBAF2EF1E0BF2EF02D0E942C082EE065
:1001200088E190E00FB6F894A89581BD0FBE21BD7F
:10013000AEE5B2E0E0E6F0E085E201900D9281509C
:10014000E1F70E943A04C8E3D0E00F2EF9E34F2E06
:100150005524F02D0F2EF2E32F2E3324F02D809115
:100160009601882319F08130E1F722C088818F7BC6
:10017000888388818068888381E080935E03F101B1
:1001800080818C6C8083EAE4F0E011821082E8E4E4
:10019000F0E011821082F201808188234CF0F1E0BE
:1001A000F093960188818F77888310925E03D7CF72
:1001B000888180648883F201808186FD03C010926B
:1001C0009601CDCF80915302813049F68EE891E0BF
:1001D00062E971E00E94AB070E941D08A0908E01A9
:1001E000B0908F01C0909001D0909101C601B501EF
:1001F00020E030E040E050E00E94190D181654F560
:10020000E0909F01F090A0010091A1011091A20146
:10021000C601B501A80197010E94150B5B016C0195
:1002200060919701709198018091990190919A0144
:10023000A80197010E94150B9B01AC01C601B501F5
:100240000E946D0C60938E0170938F0180939001DA
:1002500090939101A0908E01B0908F01C090900179
:10026000D0909101C601B50120E030E040E050E0BF
:100270000E94790D882364F5E090A301F090A40119
:100280000091A5011091A601C601B5019058A801E1
:1002900097010E94150B5B016C0160919B017091AD
:1002A0009C0180919D0190919E01A80197010E945F
:1002B000150B9B01AC01C601B5010E946D0C905855
:1002C00060938E0170938F018093900190939101C0
:1002D000A0909201B0909301C0909401D0909501AC
:1002E000C601B50120E030E040E050E00E94190D69
:1002F000181654F5E090AF01F090B0010091B101F3
:100300001091B201C601B501A80197010E94150B19
:100310005B016C016091A7017091A8018091A90116
:100320009091AA01A80197010E94150B9B01AC01B5
:10033000C601B5010E946D0C609392017093930108
:100340008093940190939501A0909201B0909301B5
:10035000C0909401D0909501C601B50120E030E035
:1003600040E050E00E94790D882364F5E090B301ED
:10037000F090B4010091B5011091B601C601B5012C
:100380009058A80197010E94150B5B016C016091C8
:10039000AB017091AC018091AD019091AE01A801CB
:1003A00097010E94150B9B01AC01C601B5010E948B
:1003B0006D0C905860939201709393018093940117
:1003C0009093950160916403709165038091660339
:1003D0009091670320E030E048EC52E40E94150B56
:1003E00020E030E048EC52E40E946D0C3B014C01EF
:1003F00060934E0270934F0280935002909351028B
:1004000060915F037091600380916103909162033A
:100410000E9449009B01AC01609344027093450225
:10042000809346029093470200D0E0908E01F090B6
:100430008F010091900110919101A0909201B090D4
:100440009301C0909401D09095018AE592E0EDB7B8
:10045000FEB792838183C401B3010F2EF4E58F2E82
:10046000F2E09F2EF02D0E9443040F900F906091B8
:10047000540270915502809156029091570220913A
:100480005A0230915B0240915C0250915D020E94E1
:1004900094021092530263CE8FEF81BB82EA8FBD2C
:1004A0008AE18EBD8FE097E297BD86BD84E089BF6B
:1004B000109253021DBC1CBC1BBC1ABC19BC18BC3E
:1004C0001092DA011092D90110925902109258023A
:1004D00008951F920F920FB60F9211248F939F933E
:1004E00081E080935302809168038823B1F4809166
:1004F00058029091590201969093590280935802A4
:1005000080915802909159020A9739F481E08093C2
:10051000680310925902109258029F918F910F9088
:100520000FBE0F901F901895AF92BF92CF92DF929F
:10053000EF92FF920F931F937B018C0159016A0187
:1005400080915E03813061F4E2E3F0E080818C6CA5
:1005500080831BBC1ABC19BC18BC10925E0392C0ED
:10056000C801B70120E030E040E050E00E94190DE2
:100570001816BCF4E2E3F0E080818460808380811F
:10058000877F808366B577B580E090E00E948B0E10
:10059000A80197010E94730B0E949D0979BD68BD57
:1005A00028C0C801B70120E030E040E050E00E94E0
:1005B000790D8823C4F4E2E3F0E0808188608083D1
:1005C00080818B7F808366B577B580E090E00E9464
:1005D0008B0E9058A80197010E94730B0E949D09F1
:1005E00079BD68BD06C0E2E3F0E08081808319BC7C
:1005F00018BCC601B5012AE037ED43E25CE30E9476
:10060000190D1816BCF4E2E3F0E080818064808369
:1006100080818F77808366B577B580E090E00E9417
:100620008B0EA60195010E94730B0E949D097BBD54
:100630006ABD28C0C601B5012AE037ED43E25CE39C
:100640000E94790D8823C4F4E2E3F0E080818068A1
:10065000808380818F7B808366B577B580E090E072
:100660000E948B0E9058A60195010E94730B0E9468
:100670009D097BBD6ABD06C0E2E3F0E08081808316
:100680001BBC1ABC1F910F91FF90EF90DF90CF9091
:10069000BF90AF900895E0E4F0E0108287E689B95A
:1006A00088E98AB986E8808380E091E090934C02E3
:1006B00080934B021092630310925E0381E090E0FE
:1006C00090931E0280931D0208951F920F920FB601
:1006D0000F9211242F938F939F93EF93FF93809109
:1006E0004B0290914C028050914039F48EEF8CB9BE
:1006F00010924C0210924B022AC0E0914B02F091F2
:100700004C02E25AFD4F8081882391F0E0914B0228
:10071000F0914C02E25AFD4F80818CB980914B02DE
:1007200090914C02019690934C0280934B020FC023
:100730008FEF8CB9EAE2F0E080818F7D808380E0EA
:1007400091E090934C0280934B0210926303FF91CF
:10075000EF919F918F912F910F900FBE0F901F904F
:1007600018951F920F920FB60F9211242F933F935B
:100770004F935F936F937F938F939F93AF93BF93A9
:10078000EF93FF93DF93CF930F92CDB7DEB78CB18A
:100790008983A89580916303882311F489818CB99A
:1007A00080911D0290911E028230910501F18330EB
:1007B000910591F1019709F049C08981813F39F490
:1007C00082E090E090931E0280931D023FC080E083
:1007D00090E0A8ECB2E48093640390936503A09347
:1007E0006603B093670381E080935E032FC0698145
:1007F00070E080E090E00E948B0E60936403709341
:100800006503809366039093670383E090E0909381
:100810001E0280931D021AC0698170E080E090E0A2
:100820000E948B0E60935F0370936003809361035B
:100830009093620381E090E090931E0280931D02EA
:10084000E8E3F0E0808192E0892780830F90CF91E8
:10085000DF91FF91EF91BF91AF919F918F917F9128
:100860006F915F914F913F912F910F900FBE0F901D
:100870001F90189581E080936303EAE2F0E08081A5
:100880008062808308952F923F924F925F926F9281
:100890007F928F929F92AF92BF92CF92DF92EF9210
:1008A000FF920F931F93DF93CF93CDB7DEB760977F
:1008B0000FB6F894DEBF0FBECDBF6F8378878987F0
:1008C0009A872B873C874D875E8727013801988A56
:1008D0008F86C801B70120E030E040E85FE30E9466
:1008E000190D18165CF40F2EF0E04F2EF0E05F2E7D
:1008F000F0E86F2EFFE37F2EF02D14C0C801B70182
:1009000020E030E040E85FEB0E94790D882354F44A
:100910000F2EF0E04F2EF0E05F2EF0E86F2EFFEB91
:100920007F2EF02DC601B50120E030E040E85FE306
:100930000E94190D18165CF40F2EF0E0AF2EF0E0B7
:10094000BF2EF0E8CF2EFFE3DF2EF02D14C0C6013E
:10095000B50120E030E040E85FEB0E94790D88238C
:1009600054F40F2EF0E0AF2EF0E0BF2EF0E8CF2EC3
:10097000FFEBDF2EF02DE090CB01F090CC01009149
:10098000CD011091CE01E092C701F092C801009311
:10099000C9011093CA01C601B501A30192010E94C9
:1009A000150B2AE132E646E850E40E94730B6B8394
:1009B0007C838D839E836093CB017093CC01809365
:1009C000CD019093CE01C301B201A60195010E9411
:1009D000460B20E030E040E05FE30E94730B3B01F8
:1009E0004C016093C3017093C4018093C50190933F
:1009F000C601C801B7012B813C814D815E810E94F7
:100A0000460B2AE037ED43E25BE30E94730B209133
:100A1000D3013091D4014091D5015091D6010E946B
:100A2000460B7B018C012BED3FE049EC50E40E942A
:100A3000190D18165CF4C801B7012BED3FE049EC25
:100A400050E40E94150B7B018C0114C0C801B70152
:100A500020E030E040E050E00E94790D882354F41B
:100A6000C801B7012BED3FE049EC50E40E94460B72
:100A70007B018C01E092D301F092D4010093D50167
:100A80001093D601C801B7012BED3FE049E450E4D3
:100A90000E94460B2B853C854D855E850E94A90DE5
:100AA00018167CF06B857C858D859E852BED3FE04F
:100AB00049EC50E40E94150B6B877C878D879E87DD
:100AC00020C0C801B7012BED3FE049E450E40E948B
:100AD000150B9B01AC016B857C858D859E850E94E5
:100AE000A90D181674F06B857C858D859E852BED80
:100AF0003FE049EC50E40E94460B6B877C878D8772
:100B00009E876B857C858D859E85A80197010E94B7
:100B1000150B5B016C016093CF017093D001809342
:100B2000D1019093D201C401B30128EE31EB49E722
:100B300050EC0E94730B7B018C016F817885898555
:100B40009A8524EF38ED4CE950E40E94730B9B0129
:100B5000AC01C801B7010E94460B3B014C01C60124
:100B6000B50121E237EA44E95FE30E94730B7B01A0
:100B70008C016B817C818D819E8128E137EA44E183
:100B80005FEB0E94730B9B01AC01C801B7010E948F
:100B9000460B5B016C0120E030E040E050E00E9439
:100BA000490D88231CF40FEF1FEF02C001E010E095
:100BB0001093BA010093B901C401B30120E030E001
:100BC00040E050E00E94490D88232CF42FEF3FEFC6
:100BD0003A83298304C081E090E09A838983A981C4
:100BE000BA81B093B801A093B701B801882777FD07
:100BF0008095982F0E94D90D1B012C01C601B501CB
:100C0000A20191010E94730B7B018C0120E030E076
:100C100040E85FE30E94190D18161CF462015101AF
:100C200014C0C801B7012DEC3CEC4CE45DE30E941C
:100C3000A90D181654F00F2EF0E0AF2EF0E0BF2EE5
:100C4000F0E0CF2EF0E0DF2EF02DA092BB01B092AD
:100C5000BC01C092BD01D092BE01E981FA81BF0101
:100C6000882777FD8095982F0E94D90D7B018C01F4
:100C7000C401B301A80197010E94730B20E030E08A
:100C800040E85FE30E94190D181614F4370148017B
:100C9000C601B501A20191010E94730B9B01AC0139
:100CA00060E070E080E89FE30E94150B1B012C01BF
:100CB000C401B301A80197010E94730BA201910125
:100CC0000E94190D181644F4C801B701A201910140
:100CD0000E94730B3B014C016092BF017092C001F6
:100CE0008092C1019092C201C601B501A401930195
:100CF0000E94460BADA1BEA16D937D938D939C93F5
:100D00001397C401B301A60195010E94150BEF854D
:100D1000F8896083718382839383ADA1BEA1ED9036
:100D2000FD900D911C91C801B70124EA30E74DE711
:100D30005FE30E94190D18165CF40F2EF4EAEF2EF3
:100D4000F0E7FF2EFDE70F2FFFE31F2FF02D14C05C
:100D5000C801B70124EA30E74DE75FEB0E94790D47
:100D6000882354F40F2EF4EAEF2EF0E7FF2EFDE770
:100D70000F2FFFEB1F2FF02DEDA1FEA1E082F182DE
:100D800002831383AF85B889ED90FD900D911C917E
:100D9000C801B70124EA30E74DE75FE30E94190D6F
:100DA00018165CF40F2EF4EAEF2EF0E7FF2EFDE7A5
:100DB0000F2FFFE31F2FF02D14C0C801B70124EA45
:100DC00030E74DE75FEB0E94790D882354F40F2E36
:100DD000F4EAEF2EF0E7FF2EFDE70F2FFFEB1F2FBA
:100DE000F02DEF85F889E082F1820283138360960B
:100DF0000FB6F894DEBF0FBECDBFCF91DF911F912C
:100E00000F91FF90EF90DF90CF90BF90AF909F90A9
:100E10008F907F906F905F904F903F902F900895AC
:100E2000A7E2B0E01C92E6E2F0E08FEA808310BE19
:100E300080818064808381E08C93109242021092C2
:100E40005202109249021092480210921C02109213
:100E50001B02109269031092680380E18ABB089517
:100E60001F920F920FB60F9211242F933F938F93DF
:100E70009F93EF93FF9384B195B190932002809359
:100E80001F0287B1882369F1813009F053C0CA9BE2
:100E900014C0809148029091490220911F02309124
:100EA0002002821B930B9093490280934802809109
:100EB00042028F5F809342023DC080914802909130
:100EC000490220911F0230912002820F931F9093BC
:100ED000490280934802809142028F5F80934202D0
:100EE00029C0CB9B14C080911B0290911C022091C1
:100EF0001F0230912002821B930B90931C0280935F
:100F00001B02809152028F5F8093520213C0809126
:100F10001B0290911C0220911F0230912002820F2F
:100F2000931F90931C0280931B02809152028F5F4B
:100F300080935202E7E2F0E0808191E0892780838C
:100F4000FF91EF919F918F913F912F910F900FBE45
:100F50000F901F9018952F923F924F925F926F9231
:100F60007F928F929F92AF92BF92CF92DF92EF9239
:100F7000FF920F931F93DF93CF9300D0CDB7DEB7CF
:100F80006C017A836983F8946091480270914902F8
:100F900060901B0270901C02E0904202A0905202EE
:100FA0007894882777FD8095982F0E94D90D1B0192
:100FB0002C01FF2400E010E0C801B7010E948B0E55
:100FC0009B01AC01C201B1010E946D0CF60160836E
:100FD000718382839383882477FC8094982CC40146
:100FE000B3010E94D90D7B018C01BB24CC24DD24EC
:100FF000C601B5010E948B0E9B01AC01C801B7016F
:101000000E946D0CE981FA816083718382839383EE
:101010000F900F90CF91DF911F910F91FF90EF9064
:10102000DF90CF90BF90AF909F908F907F906F9008
:101030005F904F903F902F900895F894109249023E
:101040001092480210921C0210921B02109242024F
:1010500010925202789408952F923F924F925F928D
:101060006F927F928F929F92AF92BF92CF92DF92B8
:10107000EF92FF920F931F93DF93CF93CDB7DEB71D
:10108000A0970FB6F894DEBF0FBECDBF4C013B0159
:101090002A0119011BBC1ABC19BC18BCE2E3F0E020
:1010A000808184648083EBE3F0E0808180618083D1
:1010B000809168038130E1F7109268030E941D0857
:1010C00080914202893120F4809152028931C0F32B
:1010D000CE010196BE016F5E7F4F0E94AB07E2E337
:1010E000F0E080818464808380818083EBE3F0E0A2
:1010F00080818F7E8083809168038130E1F7109238
:1011000068030E941D0880914202893120F4809179
:1011100052028931C0F3CE010996BE01675E7F4F4E
:101120000E94AB07E2E3F0E08081886880838081E1
:101130008083EBE3F0E080818061808380916803AD
:101140008130E1F7109268030E941D0880914202ED
:10115000893120F4809152028931C0F3CE01059685
:10116000BE016B5E7F4F0E94AB07E2E3F0E080813F
:101170008868808380818083EBE3F0E080818F7ECC
:101180008083809168038130E1F7109268030E94A8
:101190001D0880914202893120F4809152028931E8
:1011A000C0F3CE010D96BE01635E7F4F0E94AB0778
:1011B00089819A81AB81BC81F40180839183A28370
:1011C000B3838D819E81AF81B885F3018083918344
:1011D000A283B38389859A85AB85BC85F201808320
:1011E0009183A283B3838D859E85AF85B889F101F4
:1011F00080839183A283B38389899A89AB89BC89CF
:10120000F80180839183A283B3838D899E89AF89FE
:10121000B88DF70180839183A283B383898D9A8DE2
:10122000AB8DBC8DF60180839183A283B3838D8DBA
:101230009E8DAF8DB8A1F50180839183A283B38386
:10124000A0960FB6F894DEBF0FBECDBFCF91DF9151
:101250001F910F91FF90EF90DF90CF90BF90AF90D4
:101260009F908F907F906F905F904F903F902F90C6
:10127000089586EC80B98CEF81B98FEF83B984E053
:1012800086BF0895909121029F5F2091D7013091F0
:10129000D8012F5F3F4F3093D8012093D7019F7122
:1012A00090932102E2E2F2E0E90FF11D80830895BC
:1012B000809143028F5F8F71809343022091D70109
:1012C0003091D801215030403093D8012093D7017C
:1012D000E2E2F2E0E80FF11D80810895E0914A0218
:1012E000EF5FEF71E0934A02F0E0EE0FFF1FE5526F
:1012F000FE4F918380830895E0914D02EF5FEF717F
:10130000E0934D02F0E0EE0FFF1FE552FE4F8081AB
:1013100091810895F89478940895F89478940895B4
:101320001F920F920FB60F9211248F9381B18F915C
:101330000F900FBE0F901F901895EF92FF920F9392
:101340001F937B018C0120E030E040E05FE40E94CD
:10135000490D88238CF0C801B70120E030E040E05F
:101360005FE40E94150B0E94370E9B01AC012050D8
:1013700030404040504806C0C801B7010E94370EB7
:101380009B01AC01B901CA011F910F91FF90EF9031
:101390000895A0E0B0E0EFECF9E00C94F910DC0166
:1013A0002B01FA019C91923008F439C1EB0188813C
:1013B000823008F433C1943069F4843009F02FC1CD
:1013C00011969C9111978981981709F428C1A5E875
:1013D000B0E025C1843009F421C18230A9F49230F3
:1013E00009F01DC19A01AD0188E0EA010990AE0142
:1013F000E90109929E018150C1F7E20189811196AC
:101400009C918923818308C1923009F407C1129607
:101410002D903C901397EB018A819B811496AD909F
:10142000BD90CD90DC901797EC80FD800E811F81E0
:101430009101281B390BB90137FF04C066277727B4
:10144000621B730B603271050CF061C0121613063B
:101450006CF537014801062E04C096948794779462
:1014600067940A94D2F721E030E040E050E004C0F5
:10147000220F331F441F551F6A95D2F72150304069
:10148000404050402E213F2140235123211531055A
:101490004105510521F021E030E040E050E07901C4
:1014A0008A01E628F728082919293CC0232BD1F105
:1014B000260E371E35014601062E04C096948794E9
:1014C000779467940A94D2F721E030E040E050E04E
:1014D00004C0220F331F441F551F6A95D2F72150B5
:1014E0003040404050402A213B214C215D212115B4
:1014F00031054105510521F021E030E040E050E0A8
:1015000059016A01A628B728C828D9280BC0821516
:1015100093052CF01C01AA24BB24650103C0EE2412
:10152000FF24870111969C91D20111968C919817F6
:1015300009F445C0992339F0A80197012A193B09FC
:101540004C095D0906C0A60195012E193F09400B03
:10155000510B57FD08C011823382228224833583C8
:10156000468357831DC081E081833382228288278E
:101570009927DC01821B930BA40BB50B8483958305
:10158000A683B7830DC0220F331F441F551F24832A
:101590003583468357838281938101979383828326
:1015A0002481358146815781DA01C9010197A1095A
:1015B000B1098F5F9F4FAF4FBF4328F30BC091839B
:1015C00033822282EA0CFB1C0C1D1D1DE482F58275
:1015D0000683178383E08083248135814681578188
:1015E00057FF1AC0C901AA2797FDA095BA2F81708D
:1015F0009070A070B0705695479537952795822BBF
:10160000932BA42BB52B84839583A683B7838281E8
:101610009381019693838283DF0101C0D201CD01C2
:10162000CDB7DEB7E2E10C941511A0E2B0E0EBE13A
:10163000FBE00C94051169837A838B839C832D8353
:101640003E834F835887E9E0EE2EF12CEC0EFD1E11
:10165000CE010196B7010E9428108E010F5E1F4F28
:10166000CE010596B8010E9428108A8991E0892749
:101670008A8BC701B801AE01475E5F4F0E94C9095E
:101680000E94530FA096E6E00C942111A0E2B0E076
:10169000ECE4FBE00C94051169837A838B839C83D3
:1016A0002D833E834F835887F9E0EF2EF12CEC0E0B
:1016B000FD1ECE010196B7010E9428108E010F5E1B
:1016C0001F4FCE010596B8010E942810C701B8012E
:1016D000AE01475E5F4F0E94C9090E94530FA0965A
:1016E000E6E00C942111A0E2B0E0E9E7FBE00C9405
:1016F000F91069837A838B839C832D833E834F8388
:101700005887CE010196BE01675F7F4F0E94281067
:10171000CE010596BE016F5E7F4F0E94281099850D
:10172000923088F089898230C8F0943019F4823080
:1017300051F404C0843029F4923081F485E890E0BB
:10174000C6C0923049F420E09A858A89981321E036
:101750002A87CE010996BBC0823049F420E09A85E1
:101760008A89981321E02A8BCE014196B0C02D843E
:101770003E844F8458886D887E888F88988CEE24AC
:10178000FF248701AA24BB24650140E050E060E00B
:1017900070E0E0E0F0E0C10181709070892BE9F029
:1017A000E60CF71C081D191D9A01AB012A0D3B1D03
:1017B0004C1D5D1D80E090E0A0E0B0E0E614F70471
:1017C0000805190520F481E090E0A0E0B0E0BA013E
:1017D000A901480F591F6A1F7B1FAA0CBB1CCC1CF8
:1017E000DD1C97FE08C081E090E0A0E0B0E0A82AF0
:1017F000B92ACA2ADB2A3196E032F10549F0660C93
:10180000771C881C991C5694479437942794C3CF0F
:10181000FA85EA892B893C898B859C85280F391F9D
:101820002E5F3F4F17C0CA0181709070892B61F005
:1018300016950795F794E79480E090E0A0E0B0E873
:10184000E82AF92A0A2B1B2B769567955795479519
:101850002F5F3F4F77FDE7CF0CC0440F551F661F2A
:10186000771F17FD4160EE0CFF1C001F111F215058
:101870003040403090E0590790E0690790E47907E4
:1018800060F32B8F3C8FDB01CA018F779070A070C3
:10189000B07080349105A105B10561F447FD0AC01F
:1018A000E114F1040105110529F0405C5F4F6F4F11
:1018B0007F4F40781A8EFE1711F081E08A8F4D8F8E
:1018C0005E8F6F8F78A383E0898FCE0149960E9447
:1018D000530FA096E2E10C941511A8E1B0E0E3E704
:1018E000FCE00C94011169837A838B839C832D83A4
:1018F0003E834F835887B9E0EB2EF12CEC0EFD1E92
:10190000CE010196B7010E9428108E010F5E1F4F75
:10191000CE010596B8010E9428102985223008F4CE
:101920007EC03989323010F4B8017CC08A859A892A
:1019300089278A87243011F0223031F4231709F0E7
:101940006EC065E870E06EC0343039F41D861E86C6
:101950001F86188A1C861B8604C0323021F484E05E
:101960008987B7015FC02B853C858B899C89281BA3
:10197000390B3C872B87ED84FE840F851889AD8851
:10198000BE88CF88D88CEA14FB040C051D0540F4F2
:10199000EE0CFF1C001F111F215030403C872B878D
:1019A00020E030E040E050E080E090E0A0E0B0E4F3
:1019B00060E070E0EA14FB040C051D0540F0282BE4
:1019C000392B4A2B5B2BEA18FB080C091D09B6952D
:1019D000A79597958795EE0CFF1C001F111F6F5F51
:1019E0007F4F6F31710531F7DA01C9018F77907040
:1019F000A070B07080349105A105B10561F427FD98
:101A00000AC0E114F1040105110529F0205C3F4FE3
:101A10004F4F5F4F20782D873E874F87588BBE01F1
:101A2000675F7F4FCB010E94530F6896EAE00C94EA
:101A30001D11A8E1B0E0EFE1FDE00C940511698310
:101A40007A838B839C832D833E834F83588789E0E1
:101A5000E82EF12CEC0EFD1ECE010196B7010E947E
:101A600028108E010F5E1F4FCE010596B8010E940F
:101A700028108985823040F08989823028F0C7019A
:101A8000B8010E94A01001C08FEF6896E6E00C94A8
:101A90002111A8E1B0E0EFE4FDE00C9405116983A9
:101AA0007A838B839C832D833E834F83588789E081
:101AB000E82EF12CEC0EFD1ECE010196B7010E941E
:101AC00028108E010F5E1F4FCE010596B8010E94AF
:101AD00028108985823040F08989823028F0C7013A
:101AE000B8010E94A01001C08FEF6896E6E00C9448
:101AF0002111A8E1B0E0EFE7FDE00C940511698346
:101B00007A838B839C832D833E834F83588789E020
:101B1000E82EF12CEC0EFD1ECE010196B7010E94BD
:101B200028108E010F5E1F4FCE010596B8010E944E
:101B300028108985823040F08989823028F0C701D9
:101B4000B8010E94A01001C081E06896E6E00C9404
:101B50002111A8E1B0E0EFEAFDE00C9405116983E2
:101B60007A838B839C832D833E834F83588789E0C0
:101B7000E82EF12CEC0EFD1ECE010196B7010E945D
:101B800028108E010F5E1F4FCE010596B8010E94EE
:101B900028108985823040F08989823028F0C70179
:101BA000B8010E94A01001C081E06896E6E00C94A4
:101BB0002111A8E0B0E0EFEDFDE00C9402119B01D3
:101BC000AC0183E08983DA01C9018827B7FD8395D9
:101BD0009927AA27BB27B82E2115310541055105A4
:101BE00019F482E089833AC08823A9F0203080E08C
:101BF000380780E0480780E8580729F460E070E083
:101C000080E09FEC30C0EE24FF248701E21AF30A43
:101C1000040B150B02C079018A018EE1C82ED12C6C
:101C2000DC82CB82ED82FE820F831887C801B70168
:101C30000E94040F01971816190684F4082E04C098
:101C4000EE0CFF1C001F111F0A94D2F7ED82FE82DA
:101C50000F831887C81AD90ADC82CB82BA82CE01D8
:101C600001960E94530F2896E9E00C941E11ACE0F7
:101C7000B0E0EDE3FEE00C94091169837A838B8375
:101C80009C83CE010196BE016B5F7F4F0E9428109E
:101C90008D81823061F1823050F1843021F48E8167
:101CA000882351F12EC02F81388537FD20C06E81E9
:101CB0002F3131051CF06623F9F023C08EE190E04E
:101CC000821B930B29853A854B855C8504C056950C
:101CD0004795379527958A95D2F76623B1F05095A9
:101CE0004095309521953F4F4F4F5F4F0EC020E0FC
:101CF00030E040E050E009C02FEF3FEF4FEF5FE7EB
:101D000004C020E030E040E050E8B901CA012C9660
:101D1000E2E00C942511A8E0B0E0E1E9FEE00C94CB
:101D200001117B018C01611571058105910519F483
:101D300082E0898360C083E089838EE1C82ED12C44
:101D4000DC82CB82ED82FE820F831887C801B70147
:101D50000E94040FFC013197F7FF3BC02227332775
:101D60002E1B3F0B57016801022E04C0D694C79466
:101D7000B794A7940A94D2F740E050E060E070E096
:101D800081E090E0A0E0B0E004C0880F991FAA1F96
:101D9000BB1F2A95D2F70197A109B1098E219F2176
:101DA000A023B1230097A105B10521F041E050E047
:101DB00060E070E04A295B296C297D294D835E83B0
:101DC0006F8378878EE190E08E1B9F0B9C838B83C3
:101DD00012C0309781F00E2E04C0EE0CFF1C001FC5
:101DE000111F0A94D2F7ED82FE820F831887CE1A54
:101DF000DF0ADC82CB821A82CE0101960E94530F49
:101E00002896EAE00C941D11EF92FF920F931F9316
:101E10007B018C0180E0E81680E0F80681E008078D
:101E200080E0180788F48FEFE816F104010511052A
:101E300031F028F088E090E0A0E0B0E017C080E04A
:101E400090E0A0E0B0E012C080E0E81680E0F80684
:101E500080E0080781E0180728F088E190E0A0E022
:101E6000B0E004C080E190E0A0E0B0E020E230E02B
:101E700040E050E0281B390B4A0B5B0B04C0169561
:101E80000795F794E7948A95D2F7F701E357FF4F48
:101E90008081281B310941095109C9011F910F9106
:101EA000FF90EF900895DF92EF92FF920F931F93B0
:101EB000FC01E480F58006811781D1808081823029
:101EC00048F480E090E0A0E1B0E0E82AF92A0A2B8B
:101ED0001B2BA5C0843009F49FC0823021F4EE246E
:101EE000FF24870105C0E114F1040105110519F46F
:101EF000E0E0F0E096C0628173819FEF623879077D
:101F00000CF05BC022E83FEF261B370B2A3131056E
:101F10002CF020E030E040E050E02AC0B801A701FA
:101F2000022E04C076956795579547950A94D2F787
:101F300081E090E0A0E0B0E004C0880F991FAA1FE4
:101F4000BB1F2A95D2F70197A109B1098E219F21C4
:101F5000A023B1230097A105B10521F081E090E015
:101F6000A0E0B0E09A01AB01282B392B4A2B5B2B68
:101F7000DA01C9018F779070A070B070803491053C
:101F8000A105B10539F427FF09C0205C3F4F4F4F31
:101F90005F4F04C0215C3F4F4F4F5F4FE0E0F0E0E8
:101FA0002030A0E03A07A0E04A07A0E45A0710F06A
:101FB000E1E0F0E079018A0127C06038710564F53D
:101FC000FB01E158FF4FD801C7018F779070A070D7
:101FD000B07080349105A105B10539F4E7FE0DC05C
:101FE00080E490E0A0E0B0E004C08FE390E0A0E0E7
:101FF000B0E0E80EF91E0A1F1B1F17FF05C016955B
:102000000795F794E794319687E016950795F7942E
:10201000E7948A95D1F705C0EE24FF248701EFEFFE
:10202000F0E06E2F679566276795902F9F77D7947E
:10203000DD24D7948E2F8695492F462B582F5D2966
:10204000B701CA011F910F91FF90EF90DF900895A3
:10205000FC01DB01408151812281622F6F7770E0AA
:10206000221F2227221F9381892F880F822B282F3E
:1020700030E0991F9927991F11969C93119721156C
:102080003105A9F5411551056105710511F482E08D
:1020900037C082E89FEF13969C938E9312979A0114
:1020A000AB0167E0220F331F441F551F6A95D1F71C
:1020B00083E08C930DC0220F331F441F551F1296CF
:1020C0008D919C911397019713969C938E931297E1
:1020D000203080E0380780E0480780E4580758F354
:1020E00014962D933D934D935C93179708952F3F2E
:1020F000310579F4411551056105710519F484E044
:102100008C93089564FF03C081E08C9312C01C92ED
:1021100010C02F57304013963C932E93129783E0B4
:102120008C9387E0440F551F661F771F8A95D1F760
:10213000706414964D935D936D937C9317970895F7
:102140001F93DC01FB019C91923008F447C0808111
:10215000823008F443C0943051F411961C918430BD
:1021600099F58181682F70E0611B71093FC084304F
:1021700021F0923031F48230B9F18181882389F1E4
:102180002DC011961C9111978230F1F081811817A2
:10219000D9F412962D913C911397828193818217E5
:1021A000930794F028173907BCF014968D919D91F0
:1021B0000D90BC91A02D248135814681578128172F
:1021C00039074A075B0718F4112341F00AC0821748
:1021D0009307A407B50740F4112319F061E070E0FC
:1021E00005C06FEF7FEF02C060E070E0CB011F9190
:1021F00008952F923F924F925F926F927F928F92AB
:102200009F92AF92BF92CF92DF92EF92FF920F9385
:102210001F93CF93DF93CDB7DEB7CA1BDB0B0FB68F
:10222000F894DEBF0FBECDBF09942A88398848884C
:102230005F846E847D848C849B84AA84B984C884E2
:10224000DF80EE80FD800C811B81AA81B981CE0FD9
:10225000D11D0FB6F894DEBF0FBECDBFED010895BE
:04226000F894FFCF20
:10226400526F626F7420696E697469616C69736519
:10227400206574207072657420617520636F6D62CF
:1022840061740A0D0000000000000000000001025B
:1022940002030303030404040404040404050505FD
:1022A40005050505050505050505050505060606D7
:1022B40006060606060606060606060606060606BA
:1022C40006060606060606060606060606070707A7
:1022D400070707070707070707070707070707078A
:1022E400070707070707070707070707070707077A
:1022F400070707070707070707070707070707076A
:102304000707070707070707070707070708080856
:102314000808080808080808080808080808080839
:102324000808080808080808080808080808080829
:102334000808080808080808080808080808080819
:102344000808080808080808080808080808080809
:1023540008080808080808080808080808080808F9
:1023640008080808080808080808080808080808E9
:1023740008080808080808080808080808080808D9
:0E2384000808080808080808080808080800E3
:00000001FF
